{
  "abi": [
    {
      "inputs": [],
      "stateMutability": "nonpayable",
      "type": "constructor"
    },
    {
      "anonymous": false,
      "inputs": [
        {
          "indexed": true,
          "internalType": "address",
          "name": "owner",
          "type": "address"
        },
        {
          "indexed": true,
          "internalType": "address",
          "name": "approved",
          "type": "address"
        },
        {
          "indexed": true,
          "internalType": "uint256",
          "name": "tokenId",
          "type": "uint256"
        }
      ],
      "name": "Approval",
      "type": "event"
    },
    {
      "anonymous": false,
      "inputs": [
        {
          "indexed": true,
          "internalType": "address",
          "name": "owner",
          "type": "address"
        },
        {
          "indexed": true,
          "internalType": "address",
          "name": "operator",
          "type": "address"
        },
        {
          "indexed": false,
          "internalType": "bool",
          "name": "approved",
          "type": "bool"
        }
      ],
      "name": "ApprovalForAll",
      "type": "event"
    },
    {
      "anonymous": false,
      "inputs": [
        {
          "indexed": true,
          "internalType": "address",
          "name": "from",
          "type": "address"
        },
        {
          "indexed": true,
          "internalType": "address",
          "name": "to",
          "type": "address"
        },
        {
          "indexed": true,
          "internalType": "uint256",
          "name": "tokenId",
          "type": "uint256"
        }
      ],
      "name": "Transfer",
      "type": "event"
    },
    {
      "anonymous": false,
      "inputs": [
        {
          "indexed": true,
          "internalType": "uint256",
          "name": "tokenId",
          "type": "uint256"
        }
      ],
      "name": "certificateCreated",
      "type": "event"
    },
    {
      "inputs": [
        {
          "internalType": "address",
          "name": "to",
          "type": "address"
        },
        {
          "internalType": "uint256",
          "name": "tokenId",
          "type": "uint256"
        }
      ],
      "name": "approve",
      "outputs": [],
      "stateMutability": "nonpayable",
      "type": "function"
    },
    {
      "inputs": [
        {
          "internalType": "address",
          "name": "owner",
          "type": "address"
        }
      ],
      "name": "balanceOf",
      "outputs": [
        {
          "internalType": "uint256",
          "name": "",
          "type": "uint256"
        }
      ],
      "stateMutability": "view",
      "type": "function"
    },
    {
      "inputs": [
        {
          "internalType": "string",
          "name": "_certificateURI",
          "type": "string"
        }
      ],
      "name": "createCertificate",
      "outputs": [],
      "stateMutability": "nonpayable",
      "type": "function"
    },
    {
      "inputs": [
        {
          "internalType": "uint256",
          "name": "tokenId",
          "type": "uint256"
        }
      ],
      "name": "getApproved",
      "outputs": [
        {
          "internalType": "address",
          "name": "",
          "type": "address"
        }
      ],
      "stateMutability": "view",
      "type": "function"
    },
    {
      "inputs": [
        {
          "internalType": "address",
          "name": "owner",
          "type": "address"
        },
        {
          "internalType": "address",
          "name": "operator",
          "type": "address"
        }
      ],
      "name": "isApprovedForAll",
      "outputs": [
        {
          "internalType": "bool",
          "name": "",
          "type": "bool"
        }
      ],
      "stateMutability": "view",
      "type": "function"
    },
    {
      "inputs": [],
      "name": "name",
      "outputs": [
        {
          "internalType": "string",
          "name": "",
          "type": "string"
        }
      ],
      "stateMutability": "view",
      "type": "function"
    },
    {
      "inputs": [
        {
          "internalType": "uint256",
          "name": "tokenId",
          "type": "uint256"
        }
      ],
      "name": "ownerOf",
      "outputs": [
        {
          "internalType": "address",
          "name": "",
          "type": "address"
        }
      ],
      "stateMutability": "view",
      "type": "function"
    },
    {
      "inputs": [
        {
          "internalType": "address",
          "name": "from",
          "type": "address"
        },
        {
          "internalType": "address",
          "name": "to",
          "type": "address"
        },
        {
          "internalType": "uint256",
          "name": "tokenId",
          "type": "uint256"
        }
      ],
      "name": "safeTransferFrom",
      "outputs": [],
      "stateMutability": "nonpayable",
      "type": "function"
    },
    {
      "inputs": [
        {
          "internalType": "address",
          "name": "from",
          "type": "address"
        },
        {
          "internalType": "address",
          "name": "to",
          "type": "address"
        },
        {
          "internalType": "uint256",
          "name": "tokenId",
          "type": "uint256"
        },
        {
          "internalType": "bytes",
          "name": "data",
          "type": "bytes"
        }
      ],
      "name": "safeTransferFrom",
      "outputs": [],
      "stateMutability": "nonpayable",
      "type": "function"
    },
    {
      "inputs": [
        {
          "internalType": "address",
          "name": "operator",
          "type": "address"
        },
        {
          "internalType": "bool",
          "name": "approved",
          "type": "bool"
        }
      ],
      "name": "setApprovalForAll",
      "outputs": [],
      "stateMutability": "nonpayable",
      "type": "function"
    },
    {
      "inputs": [
        {
          "internalType": "bytes4",
          "name": "interfaceId",
          "type": "bytes4"
        }
      ],
      "name": "supportsInterface",
      "outputs": [
        {
          "internalType": "bool",
          "name": "",
          "type": "bool"
        }
      ],
      "stateMutability": "view",
      "type": "function"
    },
    {
      "inputs": [],
      "name": "symbol",
      "outputs": [
        {
          "internalType": "string",
          "name": "",
          "type": "string"
        }
      ],
      "stateMutability": "view",
      "type": "function"
    },
    {
      "inputs": [
        {
          "internalType": "uint256",
          "name": "tokenId",
          "type": "uint256"
        }
      ],
      "name": "tokenURI",
      "outputs": [
        {
          "internalType": "string",
          "name": "",
          "type": "string"
        }
      ],
      "stateMutability": "view",
      "type": "function"
    },
    {
      "inputs": [
        {
          "internalType": "address",
          "name": "from",
          "type": "address"
        },
        {
          "internalType": "address",
          "name": "to",
          "type": "address"
        },
        {
          "internalType": "uint256",
          "name": "tokenId",
          "type": "uint256"
        }
      ],
      "name": "transferFrom",
      "outputs": [],
      "stateMutability": "nonpayable",
      "type": "function"
    }
  ],
  "bytecode": {
    "object": "0x60806040523480156200001157600080fd5b506040518060400160405280600c81526020016b43657274696669636174657360a01b8152506040518060400160405280600381526020016210d49560ea1b815250816000908162000064919062000121565b50600162000073828262000121565b505050620001ed565b634e487b7160e01b600052604160045260246000fd5b600181811c90821680620000a757607f821691505b602082108103620000c857634e487b7160e01b600052602260045260246000fd5b50919050565b601f8211156200011c57600081815260208120601f850160051c81016020861015620000f75750805b601f850160051c820191505b81811015620001185782815560010162000103565b5050505b505050565b81516001600160401b038111156200013d576200013d6200007c565b62000155816200014e845462000092565b84620000ce565b602080601f8311600181146200018d5760008415620001745750858301515b600019600386901b1c1916600185901b17855562000118565b600085815260208120601f198616915b82811015620001be578886015182559484019460019091019084016200019d565b5085821015620001dd5787850151600019600388901b60f8161c191681555b5050505050600190811b01905550565b61167280620001fd6000396000f3fe608060405234801561001057600080fd5b50600436106100ea5760003560e01c806370a082311161008c578063a22cb46511610066578063a22cb465146101e1578063b88d4fde146101f4578063c87b56dd14610207578063e985e9c51461021a57600080fd5b806370a08231146101a557806374444882146101c657806395d89b41146101d957600080fd5b8063095ea7b3116100c8578063095ea7b31461015757806323b872dd1461016c57806342842e0e1461017f5780636352211e1461019257600080fd5b806301ffc9a7146100ef57806306fdde0314610117578063081812fc1461012c575b600080fd5b6101026100fd366004611089565b610256565b60405190151581526020015b60405180910390f35b61011f6102a8565b60405161010e91906110fe565b61013f61013a366004611111565b61033a565b6040516001600160a01b03909116815260200161010e565b61016a610165366004611146565b610361565b005b61016a61017a366004611170565b61047b565b61016a61018d366004611170565b6104ac565b61013f6101a0366004611111565b6104c7565b6101b86101b33660046111ac565b610527565b60405190815260200161010e565b61016a6101d4366004611253565b6105ad565b61011f61060b565b61016a6101ef36600461129c565b61061a565b61016a6102023660046112d8565b610629565b61011f610215366004611111565b610661565b610102610228366004611354565b6001600160a01b03918216600090815260056020908152604080832093909416825291909152205460ff1690565b60006001600160e01b031982166380ac58cd60e01b148061028757506001600160e01b03198216635b5e139f60e01b145b806102a257506301ffc9a760e01b6001600160e01b03198316145b92915050565b6060600080546102b790611387565b80601f01602080910402602001604051908101604052809291908181526020018280546102e390611387565b80156103305780601f1061030557610100808354040283529160200191610330565b820191906000526020600020905b81548152906001019060200180831161031357829003601f168201915b5050505050905090565b60006103458261066c565b506000908152600460205260409020546001600160a01b031690565b600061036c826104c7565b9050806001600160a01b0316836001600160a01b0316036103de5760405162461bcd60e51b815260206004820152602160248201527f4552433732313a20617070726f76616c20746f2063757272656e74206f776e656044820152603960f91b60648201526084015b60405180910390fd5b336001600160a01b03821614806103fa57506103fa8133610228565b61046c5760405162461bcd60e51b815260206004820152603d60248201527f4552433732313a20617070726f76652063616c6c6572206973206e6f7420746f60448201527f6b656e206f776e6572206f7220617070726f76656420666f7220616c6c00000060648201526084016103d5565b61047683836106ce565b505050565b610485338261073c565b6104a15760405162461bcd60e51b81526004016103d5906113c1565b6104768383836107bb565b61047683838360405180602001604052806000815250610629565b6000818152600260205260408120546001600160a01b0316806102a25760405162461bcd60e51b8152602060048201526018602482015277115490cdcc8c4e881a5b9d985b1a59081d1bdad95b88125160421b60448201526064016103d5565b60006001600160a01b0382166105915760405162461bcd60e51b815260206004820152602960248201527f4552433732313a2061646472657373207a65726f206973206e6f7420612076616044820152683634b21037bbb732b960b91b60648201526084016103d5565b506001600160a01b031660009081526003602052604090205490565b60006105b860075490565b90506105c8600780546001019055565b6105d2338261091f565b6105dc8183610939565b60405181907fbf7d1693b58cc284f58ef0ab9c4ca03538baf66bd5c780ba8b35e091d314dccb90600090a25050565b6060600180546102b790611387565b6106253383836109cc565b5050565b610633338361073c565b61064f5760405162461bcd60e51b81526004016103d5906113c1565b61065b84848484610a9a565b50505050565b60606102a282610acd565b6000818152600260205260409020546001600160a01b03166106cb5760405162461bcd60e51b8152602060048201526018602482015277115490cdcc8c4e881a5b9d985b1a59081d1bdad95b88125160421b60448201526064016103d5565b50565b600081815260046020526040902080546001600160a01b0319166001600160a01b0384169081179091558190610703826104c7565b6001600160a01b03167f8c5be1e5ebec7d5bd14f71427d1e84f3dd0314c0f7b2291e5b200ac8c7c3b92560405160405180910390a45050565b600080610748836104c7565b9050806001600160a01b0316846001600160a01b0316148061078f57506001600160a01b0380821660009081526005602090815260408083209388168352929052205460ff165b806107b35750836001600160a01b03166107a88461033a565b6001600160a01b0316145b949350505050565b826001600160a01b03166107ce826104c7565b6001600160a01b0316146107f45760405162461bcd60e51b81526004016103d59061140e565b6001600160a01b0382166108565760405162461bcd60e51b8152602060048201526024808201527f4552433732313a207472616e7366657220746f20746865207a65726f206164646044820152637265737360e01b60648201526084016103d5565b826001600160a01b0316610869826104c7565b6001600160a01b03161461088f5760405162461bcd60e51b81526004016103d59061140e565b600081815260046020908152604080832080546001600160a01b03199081169091556001600160a01b0387811680865260038552838620805460001901905590871680865283862080546001019055868652600290945282852080549092168417909155905184937fddf252ad1be2c89b69c2b068fc378daa952ba7f163c4a11628f55a4df523b3ef91a4505050565b610625828260405180602001604052806000815250610bd5565b6000828152600260205260409020546001600160a01b03166109b45760405162461bcd60e51b815260206004820152602e60248201527f45524337323155524953746f726167653a2055524920736574206f66206e6f6e60448201526d32bc34b9ba32b73a103a37b5b2b760911b60648201526084016103d5565b600082815260066020526040902061047682826114a1565b816001600160a01b0316836001600160a01b031603610a2d5760405162461bcd60e51b815260206004820152601960248201527f4552433732313a20617070726f766520746f2063616c6c65720000000000000060448201526064016103d5565b6001600160a01b03838116600081815260056020908152604080832094871680845294825291829020805460ff191686151590811790915591519182527f17307eab39ab6107e8899845ad3d59bd9653f200f220920489ca2b5937696c31910160405180910390a3505050565b610aa58484846107bb565b610ab184848484610c08565b61065b5760405162461bcd60e51b81526004016103d590611561565b6060610ad88261066c565b60008281526006602052604081208054610af190611387565b80601f0160208091040260200160405190810160405280929190818152602001828054610b1d90611387565b8015610b6a5780601f10610b3f57610100808354040283529160200191610b6a565b820191906000526020600020905b815481529060010190602001808311610b4d57829003601f168201915b505050505090506000610b8860408051602081019091526000815290565b90508051600003610b9a575092915050565b815115610bcc578082604051602001610bb49291906115b3565b60405160208183030381529060405292505050919050565b6107b384610d09565b610bdf8383610d7d565b610bec6000848484610c08565b6104765760405162461bcd60e51b81526004016103d590611561565b60006001600160a01b0384163b15610cfe57604051630a85bd0160e11b81526001600160a01b0385169063150b7a0290610c4c9033908990889088906004016115e2565b6020604051808303816000875af1925050508015610c87575060408051601f3d908101601f19168201909252610c849181019061161f565b60015b610ce4573d808015610cb5576040519150601f19603f3d011682016040523d82523d6000602084013e610cba565b606091505b508051600003610cdc5760405162461bcd60e51b81526004016103d590611561565b805181602001fd5b6001600160e01b031916630a85bd0160e11b1490506107b3565b506001949350505050565b6060610d148261066c565b6000610d2b60408051602081019091526000815290565b90506000815111610d4b5760405180602001604052806000815250610d76565b80610d5584610f08565b604051602001610d669291906115b3565b6040516020818303038152906040525b9392505050565b6001600160a01b038216610dd35760405162461bcd60e51b815260206004820181905260248201527f4552433732313a206d696e7420746f20746865207a65726f206164647265737360448201526064016103d5565b6000818152600260205260409020546001600160a01b031615610e385760405162461bcd60e51b815260206004820152601c60248201527f4552433732313a20746f6b656e20616c7265616479206d696e7465640000000060448201526064016103d5565b6000818152600260205260409020546001600160a01b031615610e9d5760405162461bcd60e51b815260206004820152601c60248201527f4552433732313a20746f6b656e20616c7265616479206d696e7465640000000060448201526064016103d5565b6001600160a01b038216600081815260036020908152604080832080546001019055848352600290915280822080546001600160a01b0319168417905551839291907fddf252ad1be2c89b69c2b068fc378daa952ba7f163c4a11628f55a4df523b3ef908290a45050565b60606000610f1583610f9b565b600101905060008167ffffffffffffffff811115610f3557610f356111c7565b6040519080825280601f01601f191660200182016040528015610f5f576020820181803683370190505b5090508181016020015b600019016f181899199a1a9b1b9c1cb0b131b232b360811b600a86061a8153600a8504945084610f6957509392505050565b60008072184f03e93ff9f4daa797ed6e38ed64bf6a1f0160401b8310610fda5772184f03e93ff9f4daa797ed6e38ed64bf6a1f0160401b830492506040015b6d04ee2d6d415b85acef81000000008310611006576d04ee2d6d415b85acef8100000000830492506020015b662386f26fc10000831061102457662386f26fc10000830492506010015b6305f5e100831061103c576305f5e100830492506008015b612710831061105057612710830492506004015b60648310611062576064830492506002015b600a83106102a25760010192915050565b6001600160e01b0319811681146106cb57600080fd5b60006020828403121561109b57600080fd5b8135610d7681611073565b60005b838110156110c15781810151838201526020016110a9565b8381111561065b5750506000910152565b600081518084526110ea8160208601602086016110a6565b601f01601f19169290920160200192915050565b602081526000610d7660208301846110d2565b60006020828403121561112357600080fd5b5035919050565b80356001600160a01b038116811461114157600080fd5b919050565b6000806040838503121561115957600080fd5b6111628361112a565b946020939093013593505050565b60008060006060848603121561118557600080fd5b61118e8461112a565b925061119c6020850161112a565b9150604084013590509250925092565b6000602082840312156111be57600080fd5b610d768261112a565b634e487b7160e01b600052604160045260246000fd5b600067ffffffffffffffff808411156111f8576111f86111c7565b604051601f8501601f19908116603f01168101908282118183101715611220576112206111c7565b8160405280935085815286868601111561123957600080fd5b858560208301376000602087830101525050509392505050565b60006020828403121561126557600080fd5b813567ffffffffffffffff81111561127c57600080fd5b8201601f8101841361128d57600080fd5b6107b3848235602084016111dd565b600080604083850312156112af57600080fd5b6112b88361112a565b9150602083013580151581146112cd57600080fd5b809150509250929050565b600080600080608085870312156112ee57600080fd5b6112f78561112a565b93506113056020860161112a565b925060408501359150606085013567ffffffffffffffff81111561132857600080fd5b8501601f8101871361133957600080fd5b611348878235602084016111dd565b91505092959194509250565b6000806040838503121561136757600080fd5b6113708361112a565b915061137e6020840161112a565b90509250929050565b600181811c9082168061139b57607f821691505b6020821081036113bb57634e487b7160e01b600052602260045260246000fd5b50919050565b6020808252602d908201527f4552433732313a2063616c6c6572206973206e6f7420746f6b656e206f776e6560408201526c1c881bdc88185c1c1c9bdd9959609a1b606082015260800190565b60208082526025908201527f4552433732313a207472616e736665722066726f6d20696e636f72726563742060408201526437bbb732b960d91b606082015260800190565b601f82111561047657600081815260208120601f850160051c8101602086101561147a5750805b601f850160051c820191505b8181101561149957828155600101611486565b505050505050565b815167ffffffffffffffff8111156114bb576114bb6111c7565b6114cf816114c98454611387565b84611453565b602080601f83116001811461150457600084156114ec5750858301515b600019600386901b1c1916600185901b178555611499565b600085815260208120601f198616915b8281101561153357888601518255948401946001909101908401611514565b50858210156115515787850151600019600388901b60f8161c191681555b5050505050600190811b01905550565b60208082526032908201527f4552433732313a207472616e7366657220746f206e6f6e20455243373231526560408201527131b2b4bb32b91034b6b83632b6b2b73a32b960711b606082015260800190565b600083516115c58184602088016110a6565b8351908301906115d98183602088016110a6565b01949350505050565b6001600160a01b0385811682528416602082015260408101839052608060608201819052600090611615908301846110d2565b9695505050505050565b60006020828403121561163157600080fd5b8151610d768161107356fea2646970667358221220bfa0849b75b7b5fe49d480752463a535176c548357dd2e7cfdef02872faf39eb64736f6c634300080f0033",
    "linkReferences": {}
  },
  "methodIdentifiers": {
    "approve(address,uint256)": "095ea7b3",
    "balanceOf(address)": "70a08231",
    "createCertificate(string)": "74444882",
    "getApproved(uint256)": "081812fc",
    "isApprovedForAll(address,address)": "e985e9c5",
    "name()": "06fdde03",
    "ownerOf(uint256)": "6352211e",
    "safeTransferFrom(address,address,uint256)": "42842e0e",
    "safeTransferFrom(address,address,uint256,bytes)": "b88d4fde",
    "setApprovalForAll(address,bool)": "a22cb465",
    "supportsInterface(bytes4)": "01ffc9a7",
    "symbol()": "95d89b41",
    "tokenURI(uint256)": "c87b56dd",
    "transferFrom(address,address,uint256)": "23b872dd"
  },
  "id": 19
}